{
  "contractName": "Pharma",
  "abi": [
    {
      "inputs": [],
      "payable": false,
      "stateMutability": "nonpayable",
      "type": "constructor"
    },
    {
      "constant": false,
      "inputs": [
        {
          "name": "productID",
          "type": "uint256"
        },
        {
          "name": "serialNo",
          "type": "uint256"
        }
      ],
      "name": "create",
      "outputs": [],
      "payable": false,
      "stateMutability": "nonpayable",
      "type": "function"
    },
    {
      "constant": false,
      "inputs": [
        {
          "name": "receiver",
          "type": "address"
        },
        {
          "name": "serialNo",
          "type": "uint256"
        }
      ],
      "name": "transact",
      "outputs": [],
      "payable": false,
      "stateMutability": "nonpayable",
      "type": "function"
    }
  ],
  "bytecode": "0x608060405234801561001057600080fd5b5061028f806100206000396000f3fe60806040526004361061004c576000357c0100000000000000000000000000000000000000000000000000000000900463ffffffff1680639f7b457914610051578063f77ac66814610096575b600080fd5b34801561005d57600080fd5b506100946004803603604081101561007457600080fd5b8101908080359060200190929190803590602001909291905050506100f1565b005b3480156100a257600080fd5b506100ef600480360360408110156100b957600080fd5b81019080803573ffffffffffffffffffffffffffffffffffffffff169060200190929190803590602001909291905050506101b7565b005b81600080838152602001908152602001600020600001819055503360008083815260200190815260200160002060010160006101000a81548173ffffffffffffffffffffffffffffffffffffffff021916908373ffffffffffffffffffffffffffffffffffffffff1602179055503360008083815260200190815260200160002060020160006101000a81548173ffffffffffffffffffffffffffffffffffffffff021916908373ffffffffffffffffffffffffffffffffffffffff1602179055505050565b3360008083815260200190815260200160002060020160006101000a81548173ffffffffffffffffffffffffffffffffffffffff021916908373ffffffffffffffffffffffffffffffffffffffff1602179055508160008083815260200190815260200160002060010160006101000a81548173ffffffffffffffffffffffffffffffffffffffff021916908373ffffffffffffffffffffffffffffffffffffffff160217905550505056fea165627a7a72305820a7e505b516297212953f7222a21fcc4a1337b14f327091fb279cba7890e1d52e0029",
  "source": "pragma solidity >=0.4.22 <0.6.0;\ncontract Pharma{\n\n    constructor() public{\n    }\n\n    struct product {\n        uint productID;\n        address currOwn;\n        address prevOwn;\n    }\n    mapping(uint => product) products;\n\n    function create(uint productID, uint serialNo) public {\n        products[serialNo].productID = productID;\n        products[serialNo].currOwn = msg.sender;\n        products[serialNo].prevOwn = msg.sender;\n    }\n\n    function transact(address receiver, uint serialNo) public {\n        //require(products[serialNo].currOwn == msg.sender, \"You don't own this\");\n        products[serialNo].prevOwn = msg.sender;\n        products[serialNo].currOwn = receiver;\n    }\n\n\n\n}\n",
  "sourcePath": "/home/ubuntu/pet/contracts/Pharma.sol",
  "compiler": {
    "name": "solc",
    "version": "0.5.0+commit.1d4f565a.Emscripten.clang"
  },
  "schemaVersion": "3.0.1",
  "updatedAt": "2019-04-13T16:03:40.011Z",
  "devdoc": {
    "methods": {}
  },
  "userdoc": {
    "methods": {}
  }
}